{
	"new_project.sol": {
		"mincoin_ico": {
			"abi": [
				{
					"constant": true,
					"inputs": [
						{
							"name": "investor",
							"type": "address"
						}
					],
					"name": "equity_in_mincoins",
					"outputs": [
						{
							"name": "",
							"type": "uint256"
						}
					],
					"payable": false,
					"type": "function",
					"stateMutability": "view"
				},
				{
					"constant": false,
					"inputs": [
						{
							"name": "investor",
							"type": "address"
						},
						{
							"name": "mincoins_sold",
							"type": "uint256"
						}
					],
					"name": "sell_mincoins",
					"outputs": [],
					"payable": false,
					"type": "function",
					"stateMutability": "nonpayable"
				},
				{
					"constant": true,
					"inputs": [
						{
							"name": "investor",
							"type": "address"
						}
					],
					"name": "equity_in_usd",
					"outputs": [
						{
							"name": "",
							"type": "uint256"
						}
					],
					"payable": false,
					"type": "function",
					"stateMutability": "view"
				},
				{
					"constant": true,
					"inputs": [],
					"name": "max_mincoins",
					"outputs": [
						{
							"name": "",
							"type": "uint256"
						}
					],
					"payable": false,
					"type": "function",
					"stateMutability": "view"
				},
				{
					"constant": true,
					"inputs": [],
					"name": "total_mincoins_bought",
					"outputs": [
						{
							"name": "",
							"type": "uint256"
						}
					],
					"payable": false,
					"type": "function",
					"stateMutability": "view"
				},
				{
					"constant": true,
					"inputs": [],
					"name": "usd_to_mincoin_cr",
					"outputs": [
						{
							"name": "",
							"type": "uint256"
						}
					],
					"payable": false,
					"type": "function",
					"stateMutability": "view"
				},
				{
					"constant": false,
					"inputs": [
						{
							"name": "investor",
							"type": "address"
						},
						{
							"name": "usd_invested",
							"type": "uint256"
						}
					],
					"name": "buy_mincoins",
					"outputs": [],
					"payable": false,
					"type": "function",
					"stateMutability": "nonpayable"
				}
			],
			"devdoc": {
				"methods": {}
			},
			"evm": {
				"assembly": "    /* \"new_project.sol\":20:1778  contract mincoin_ico {\r... */\n  mstore(0x40, 0x60)\n    /* \"new_project.sol\":139:146  1000000 */\n  0xf4240\n    /* \"new_project.sol\":112:146  uint public max_mincoins = 1000000 */\n  0x0\n  sstore\n    /* \"new_project.sol\":230:234  1000 */\n  0x3e8\n    /* \"new_project.sol\":198:234  uint public usd_to_mincoin_cr = 1000 */\n  0x1\n  sstore\n    /* \"new_project.sol\":329:330  0 */\n  0x0\n    /* \"new_project.sol\":293:330  uint public total_mincoins_bought = 0 */\n  0x2\n  sstore\n    /* \"new_project.sol\":20:1778  contract mincoin_ico {\r... */\n  jumpi(tag_1, iszero(callvalue))\n  invalid\ntag_1:\ntag_2:\n  dataSize(sub_0)\n  dup1\n  dataOffset(sub_0)\n  0x0\n  codecopy\n  0x0\n  return\nstop\n\nsub_0: assembly {\n        /* \"new_project.sol\":20:1778  contract mincoin_ico {\r... */\n      mstore(0x40, 0x60)\n      jumpi(tag_1, iszero(calldatasize))\n      calldataload(0x0)\n      0x100000000000000000000000000000000000000000000000000000000\n      swap1\n      div\n      0xffffffff\n      and\n      dup1\n      0x398e2c2\n      eq\n      tag_2\n      jumpi\n      dup1\n      0xfa1e4d0\n      eq\n      tag_3\n      jumpi\n      dup1\n      0x10c51c1b\n      eq\n      tag_4\n      jumpi\n      dup1\n      0x57772303\n      eq\n      tag_5\n      jumpi\n      dup1\n      0x79c66365\n      eq\n      tag_6\n      jumpi\n      dup1\n      0xa9ed2122\n      eq\n      tag_7\n      jumpi\n      dup1\n      0xd6ef7e0a\n      eq\n      tag_8\n      jumpi\n    tag_1:\n      invalid\n        /* \"new_project.sol\":803:933  function equity_in_mincoins(address investor) external constant returns (uint) {\r... */\n    tag_2:\n      jumpi(tag_9, iszero(callvalue))\n      invalid\n    tag_9:\n      tag_10\n      0x4\n      dup1\n      dup1\n      calldataload\n      0xffffffffffffffffffffffffffffffffffffffff\n      and\n      swap1\n      0x20\n      add\n      swap1\n      swap2\n      swap1\n      pop\n      pop\n      jump(tag_11)\n    tag_10:\n      mload(0x40)\n      dup1\n      dup3\n      dup2\n      mstore\n      0x20\n      add\n      swap2\n      pop\n      pop\n      mload(0x40)\n      dup1\n      swap2\n      sub\n      swap1\n      return\n        /* \"new_project.sol\":1523:1769  function sell_mincoins(address investor, uint mincoins_sold) external {\r... */\n    tag_3:\n      jumpi(tag_12, iszero(callvalue))\n      invalid\n    tag_12:\n      tag_13\n      0x4\n      dup1\n      dup1\n      calldataload\n      0xffffffffffffffffffffffffffffffffffffffff\n      and\n      swap1\n      0x20\n      add\n      swap1\n      swap2\n      swap1\n      dup1\n      calldataload\n      swap1\n      0x20\n      add\n      swap1\n      swap2\n      swap1\n      pop\n      pop\n      jump(tag_14)\n    tag_13:\n      stop\n        /* \"new_project.sol\":986:1106  function equity_in_usd(address investor) external constant returns (uint) {\r... */\n    tag_4:\n      jumpi(tag_15, iszero(callvalue))\n      invalid\n    tag_15:\n      tag_16\n      0x4\n      dup1\n      dup1\n      calldataload\n      0xffffffffffffffffffffffffffffffffffffffff\n      and\n      swap1\n      0x20\n      add\n      swap1\n      swap2\n      swap1\n      pop\n      pop\n      jump(tag_17)\n    tag_16:\n      mload(0x40)\n      dup1\n      dup3\n      dup2\n      mstore\n      0x20\n      add\n      swap2\n      pop\n      pop\n      mload(0x40)\n      dup1\n      swap2\n      sub\n      swap1\n      return\n        /* \"new_project.sol\":112:146  uint public max_mincoins = 1000000 */\n    tag_5:\n      jumpi(tag_18, iszero(callvalue))\n      invalid\n    tag_18:\n      tag_19\n      jump(tag_20)\n    tag_19:\n      mload(0x40)\n      dup1\n      dup3\n      dup2\n      mstore\n      0x20\n      add\n      swap2\n      pop\n      pop\n      mload(0x40)\n      dup1\n      swap2\n      sub\n      swap1\n      return\n        /* \"new_project.sol\":293:330  uint public total_mincoins_bought = 0 */\n    tag_6:\n      jumpi(tag_21, iszero(callvalue))\n      invalid\n    tag_21:\n      tag_22\n      jump(tag_23)\n    tag_22:\n      mload(0x40)\n      dup1\n      dup3\n      dup2\n      mstore\n      0x20\n      add\n      swap2\n      pop\n      pop\n      mload(0x40)\n      dup1\n      swap2\n      sub\n      swap1\n      return\n        /* \"new_project.sol\":198:234  uint public usd_to_mincoin_cr = 1000 */\n    tag_7:\n      jumpi(tag_24, iszero(callvalue))\n      invalid\n    tag_24:\n      tag_25\n      jump(tag_26)\n    tag_25:\n      mload(0x40)\n      dup1\n      dup3\n      dup2\n      mstore\n      0x20\n      add\n      swap2\n      pop\n      pop\n      mload(0x40)\n      dup1\n      swap2\n      sub\n      swap1\n      return\n        /* \"new_project.sol\":1140:1490  function buy_mincoins(address investor, uint usd_invested) external\r... */\n    tag_8:\n      jumpi(tag_27, iszero(callvalue))\n      invalid\n    tag_27:\n      tag_28\n      0x4\n      dup1\n      dup1\n      calldataload\n      0xffffffffffffffffffffffffffffffffffffffff\n      and\n      swap1\n      0x20\n      add\n      swap1\n      swap2\n      swap1\n      dup1\n      calldataload\n      swap1\n      0x20\n      add\n      swap1\n      swap2\n      swap1\n      pop\n      pop\n      jump(tag_29)\n    tag_28:\n      stop\n        /* \"new_project.sol\":803:933  function equity_in_mincoins(address investor) external constant returns (uint) {\r... */\n    tag_11:\n        /* \"new_project.sol\":876:880  uint */\n      0x0\n        /* \"new_project.sol\":900:915  equity_mincoins */\n      0x3\n        /* \"new_project.sol\":900:925  equity_mincoins[investor] */\n      0x0\n        /* \"new_project.sol\":916:924  investor */\n      dup4\n        /* \"new_project.sol\":900:925  equity_mincoins[investor] */\n      0xffffffffffffffffffffffffffffffffffffffff\n      and\n      0xffffffffffffffffffffffffffffffffffffffff\n      and\n      dup2\n      mstore\n      0x20\n      add\n      swap1\n      dup2\n      mstore\n      0x20\n      add\n      0x0\n      sha3\n      sload\n        /* \"new_project.sol\":893:925  return equity_mincoins[investor] */\n      swap1\n      pop\n        /* \"new_project.sol\":803:933  function equity_in_mincoins(address investor) external constant returns (uint) {\r... */\n    tag_30:\n      swap2\n      swap1\n      pop\n      jump\t// out\n        /* \"new_project.sol\":1523:1769  function sell_mincoins(address investor, uint mincoins_sold) external {\r... */\n    tag_14:\n        /* \"new_project.sol\":1633:1646  mincoins_sold */\n      dup1\n        /* \"new_project.sol\":1604:1619  equity_mincoins */\n      0x3\n        /* \"new_project.sol\":1604:1629  equity_mincoins[investor] */\n      0x0\n        /* \"new_project.sol\":1620:1628  investor */\n      dup5\n        /* \"new_project.sol\":1604:1629  equity_mincoins[investor] */\n      0xffffffffffffffffffffffffffffffffffffffff\n      and\n      0xffffffffffffffffffffffffffffffffffffffff\n      and\n      dup2\n      mstore\n      0x20\n      add\n      swap1\n      dup2\n      mstore\n      0x20\n      add\n      0x0\n      sha3\n      0x0\n        /* \"new_project.sol\":1604:1646  equity_mincoins[investor] -= mincoins_sold */\n      dup3\n      dup3\n      sload\n      sub\n      swap3\n      pop\n      pop\n      dup2\n      swap1\n      sstore\n      pop\n        /* \"new_project.sol\":1708:1712  1000 */\n      0x3e8\n        /* \"new_project.sol\":1680:1695  equity_mincoins */\n      0x3\n        /* \"new_project.sol\":1680:1705  equity_mincoins[investor] */\n      0x0\n        /* \"new_project.sol\":1696:1704  investor */\n      dup5\n        /* \"new_project.sol\":1680:1705  equity_mincoins[investor] */\n      0xffffffffffffffffffffffffffffffffffffffff\n      and\n      0xffffffffffffffffffffffffffffffffffffffff\n      and\n      dup2\n      mstore\n      0x20\n      add\n      swap1\n      dup2\n      mstore\n      0x20\n      add\n      0x0\n      sha3\n      sload\n        /* \"new_project.sol\":1680:1712  equity_mincoins[investor] / 1000 */\n      dup2\n      iszero\n      iszero\n      tag_32\n      jumpi\n      invalid\n    tag_32:\n      div\n        /* \"new_project.sol\":1657:1667  equity_usd */\n      0x4\n        /* \"new_project.sol\":1657:1677  equity_usd[investor] */\n      0x0\n        /* \"new_project.sol\":1668:1676  investor */\n      dup5\n        /* \"new_project.sol\":1657:1677  equity_usd[investor] */\n      0xffffffffffffffffffffffffffffffffffffffff\n      and\n      0xffffffffffffffffffffffffffffffffffffffff\n      and\n      dup2\n      mstore\n      0x20\n      add\n      swap1\n      dup2\n      mstore\n      0x20\n      add\n      0x0\n      sha3\n        /* \"new_project.sol\":1657:1712  equity_usd[investor] = equity_mincoins[investor] / 1000 */\n      dup2\n      swap1\n      sstore\n      pop\n        /* \"new_project.sol\":1748:1761  mincoins_sold */\n      dup1\n        /* \"new_project.sol\":1723:1744  total_mincoins_bought */\n      0x2\n      0x0\n        /* \"new_project.sol\":1723:1761  total_mincoins_bought -= mincoins_sold */\n      dup3\n      dup3\n      sload\n      sub\n      swap3\n      pop\n      pop\n      dup2\n      swap1\n      sstore\n      pop\n        /* \"new_project.sol\":1523:1769  function sell_mincoins(address investor, uint mincoins_sold) external {\r... */\n    tag_31:\n      pop\n      pop\n      jump\t// out\n        /* \"new_project.sol\":986:1106  function equity_in_usd(address investor) external constant returns (uint) {\r... */\n    tag_17:\n        /* \"new_project.sol\":1054:1058  uint */\n      0x0\n        /* \"new_project.sol\":1078:1088  equity_usd */\n      0x4\n        /* \"new_project.sol\":1078:1098  equity_usd[investor] */\n      0x0\n        /* \"new_project.sol\":1089:1097  investor */\n      dup4\n        /* \"new_project.sol\":1078:1098  equity_usd[investor] */\n      0xffffffffffffffffffffffffffffffffffffffff\n      and\n      0xffffffffffffffffffffffffffffffffffffffff\n      and\n      dup2\n      mstore\n      0x20\n      add\n      swap1\n      dup2\n      mstore\n      0x20\n      add\n      0x0\n      sha3\n      sload\n        /* \"new_project.sol\":1071:1098  return equity_usd[investor] */\n      swap1\n      pop\n        /* \"new_project.sol\":986:1106  function equity_in_usd(address investor) external constant returns (uint) {\r... */\n    tag_33:\n      swap2\n      swap1\n      pop\n      jump\t// out\n        /* \"new_project.sol\":112:146  uint public max_mincoins = 1000000 */\n    tag_20:\n      sload(0x0)\n      dup2\n      jump\t// out\n        /* \"new_project.sol\":293:330  uint public total_mincoins_bought = 0 */\n    tag_23:\n      sload(0x2)\n      dup2\n      jump\t// out\n        /* \"new_project.sol\":198:234  uint public usd_to_mincoin_cr = 1000 */\n    tag_26:\n      sload(0x1)\n      dup2\n      jump\t// out\n        /* \"new_project.sol\":1140:1490  function buy_mincoins(address investor, uint usd_invested) external\r... */\n    tag_29:\n        /* \"new_project.sol\":1255:1275  uint mincoins_bought */\n      0x0\n        /* \"new_project.sol\":1230:1242  usd_invested */\n      dup2\n        /* \"new_project.sol\":709:721  max_mincoins */\n      sload(0x0)\n        /* \"new_project.sol\":684:705  total_mincoins_bought */\n      sload(0x2)\n        /* \"new_project.sol\":664:681  usd_to_mincoin_cr */\n      sload(0x1)\n        /* \"new_project.sol\":649:661  usd_invested */\n      dup4\n        /* \"new_project.sol\":649:681  usd_invested * usd_to_mincoin_cr */\n      mul\n        /* \"new_project.sol\":649:705  usd_invested * usd_to_mincoin_cr + total_mincoins_bought */\n      add\n        /* \"new_project.sol\":649:721  usd_invested * usd_to_mincoin_cr + total_mincoins_bought <= max_mincoins */\n      gt\n      iszero\n        /* \"new_project.sol\":640:722  require (usd_invested * usd_to_mincoin_cr + total_mincoins_bought <= max_mincoins) */\n      iszero\n      iszero\n      tag_35\n      jumpi\n      revert(0x0, 0x0)\n    tag_35:\n        /* \"new_project.sol\":1293:1310  usd_to_mincoin_cr */\n      sload(0x1)\n        /* \"new_project.sol\":1278:1290  usd_invested */\n      dup4\n        /* \"new_project.sol\":1278:1310  usd_invested * usd_to_mincoin_cr */\n      mul\n        /* \"new_project.sol\":1255:1310  uint mincoins_bought = usd_invested * usd_to_mincoin_cr */\n      swap2\n      pop\n        /* \"new_project.sol\":1350:1365  mincoins_bought */\n      dup2\n        /* \"new_project.sol\":1321:1336  equity_mincoins */\n      0x3\n        /* \"new_project.sol\":1321:1346  equity_mincoins[investor] */\n      0x0\n        /* \"new_project.sol\":1337:1345  investor */\n      dup7\n        /* \"new_project.sol\":1321:1346  equity_mincoins[investor] */\n      0xffffffffffffffffffffffffffffffffffffffff\n      and\n      0xffffffffffffffffffffffffffffffffffffffff\n      and\n      dup2\n      mstore\n      0x20\n      add\n      swap1\n      dup2\n      mstore\n      0x20\n      add\n      0x0\n      sha3\n      0x0\n        /* \"new_project.sol\":1321:1365  equity_mincoins[investor] += mincoins_bought */\n      dup3\n      dup3\n      sload\n      add\n      swap3\n      pop\n      pop\n      dup2\n      swap1\n      sstore\n      pop\n        /* \"new_project.sol\":1427:1431  1000 */\n      0x3e8\n        /* \"new_project.sol\":1399:1414  equity_mincoins */\n      0x3\n        /* \"new_project.sol\":1399:1424  equity_mincoins[investor] */\n      0x0\n        /* \"new_project.sol\":1415:1423  investor */\n      dup7\n        /* \"new_project.sol\":1399:1424  equity_mincoins[investor] */\n      0xffffffffffffffffffffffffffffffffffffffff\n      and\n      0xffffffffffffffffffffffffffffffffffffffff\n      and\n      dup2\n      mstore\n      0x20\n      add\n      swap1\n      dup2\n      mstore\n      0x20\n      add\n      0x0\n      sha3\n      sload\n        /* \"new_project.sol\":1399:1431  equity_mincoins[investor] / 1000 */\n      dup2\n      iszero\n      iszero\n      tag_37\n      jumpi\n      invalid\n    tag_37:\n      div\n        /* \"new_project.sol\":1376:1386  equity_usd */\n      0x4\n        /* \"new_project.sol\":1376:1396  equity_usd[investor] */\n      0x0\n        /* \"new_project.sol\":1387:1395  investor */\n      dup7\n        /* \"new_project.sol\":1376:1396  equity_usd[investor] */\n      0xffffffffffffffffffffffffffffffffffffffff\n      and\n      0xffffffffffffffffffffffffffffffffffffffff\n      and\n      dup2\n      mstore\n      0x20\n      add\n      swap1\n      dup2\n      mstore\n      0x20\n      add\n      0x0\n      sha3\n        /* \"new_project.sol\":1376:1431  equity_usd[investor] = equity_mincoins[investor] / 1000 */\n      dup2\n      swap1\n      sstore\n      pop\n        /* \"new_project.sol\":1467:1482  mincoins_bought */\n      dup2\n        /* \"new_project.sol\":1442:1463  total_mincoins_bought */\n      0x2\n      0x0\n        /* \"new_project.sol\":1442:1482  total_mincoins_bought += mincoins_bought */\n      dup3\n      dup3\n      sload\n      add\n      swap3\n      pop\n      pop\n      dup2\n      swap1\n      sstore\n      pop\n        /* \"new_project.sol\":733:734  _ */\n    tag_36:\n        /* \"new_project.sol\":1140:1490  function buy_mincoins(address investor, uint usd_invested) external\r... */\n    tag_34:\n      pop\n      pop\n      pop\n      pop\n      jump\t// out\n}\n",
				"bytecode": {
					"linkReferences": {},
					"object": "6060604052620f42406000556103e86001556000600255341561001e57fe5b5b6104e48061002e6000396000f30060606040523615610081576000357c0100000000000000000000000000000000000000000000000000000000900463ffffffff1680630398e2c2146100835780630fa1e4d0146100cd57806310c51c1b1461010c578063577723031461015657806379c663651461017c578063a9ed2122146101a2578063d6ef7e0a146101c8575bfe5b341561008b57fe5b6100b7600480803573ffffffffffffffffffffffffffffffffffffffff16906020019091905050610207565b6040518082815260200191505060405180910390f35b34156100d557fe5b61010a600480803573ffffffffffffffffffffffffffffffffffffffff16906020019091908035906020019091905050610251565b005b341561011457fe5b610140600480803573ffffffffffffffffffffffffffffffffffffffff16906020019091905050610343565b6040518082815260200191505060405180910390f35b341561015e57fe5b61016661038d565b6040518082815260200191505060405180910390f35b341561018457fe5b61018c610393565b6040518082815260200191505060405180910390f35b34156101aa57fe5b6101b2610399565b6040518082815260200191505060405180910390f35b34156101d057fe5b610205600480803573ffffffffffffffffffffffffffffffffffffffff1690602001909190803590602001909190505061039f565b005b6000600360008373ffffffffffffffffffffffffffffffffffffffff1673ffffffffffffffffffffffffffffffffffffffff1681526020019081526020016000205490505b919050565b80600360008473ffffffffffffffffffffffffffffffffffffffff1673ffffffffffffffffffffffffffffffffffffffff168152602001908152602001600020600082825403925050819055506103e8600360008473ffffffffffffffffffffffffffffffffffffffff1673ffffffffffffffffffffffffffffffffffffffff168152602001908152602001600020548115156102ea57fe5b04600460008473ffffffffffffffffffffffffffffffffffffffff1673ffffffffffffffffffffffffffffffffffffffff16815260200190815260200160002081905550806002600082825403925050819055505b5050565b6000600460008373ffffffffffffffffffffffffffffffffffffffff1673ffffffffffffffffffffffffffffffffffffffff1681526020019081526020016000205490505b919050565b60005481565b60025481565b60015481565b600081600054600254600154830201111515156103bc5760006000fd5b6001548302915081600360008673ffffffffffffffffffffffffffffffffffffffff1673ffffffffffffffffffffffffffffffffffffffff168152602001908152602001600020600082825401925050819055506103e8600360008673ffffffffffffffffffffffffffffffffffffffff1673ffffffffffffffffffffffffffffffffffffffff1681526020019081526020016000205481151561045c57fe5b04600460008673ffffffffffffffffffffffffffffffffffffffff1673ffffffffffffffffffffffffffffffffffffffff16815260200190815260200160002081905550816002600082825401925050819055505b5b505050505600a165627a7a72305820009fb1230be4bf6ac198316dd0e5daf0421afc4bff1a6d3285a7b3a83507faad0029",
					"opcodes": "PUSH1 0x60 PUSH1 0x40 MSTORE PUSH3 0xF4240 PUSH1 0x0 SSTORE PUSH2 0x3E8 PUSH1 0x1 SSTORE PUSH1 0x0 PUSH1 0x2 SSTORE CALLVALUE ISZERO PUSH2 0x1E JUMPI INVALID JUMPDEST JUMPDEST PUSH2 0x4E4 DUP1 PUSH2 0x2E PUSH1 0x0 CODECOPY PUSH1 0x0 RETURN STOP PUSH1 0x60 PUSH1 0x40 MSTORE CALLDATASIZE ISZERO PUSH2 0x81 JUMPI PUSH1 0x0 CALLDATALOAD PUSH29 0x100000000000000000000000000000000000000000000000000000000 SWAP1 DIV PUSH4 0xFFFFFFFF AND DUP1 PUSH4 0x398E2C2 EQ PUSH2 0x83 JUMPI DUP1 PUSH4 0xFA1E4D0 EQ PUSH2 0xCD JUMPI DUP1 PUSH4 0x10C51C1B EQ PUSH2 0x10C JUMPI DUP1 PUSH4 0x57772303 EQ PUSH2 0x156 JUMPI DUP1 PUSH4 0x79C66365 EQ PUSH2 0x17C JUMPI DUP1 PUSH4 0xA9ED2122 EQ PUSH2 0x1A2 JUMPI DUP1 PUSH4 0xD6EF7E0A EQ PUSH2 0x1C8 JUMPI JUMPDEST INVALID JUMPDEST CALLVALUE ISZERO PUSH2 0x8B JUMPI INVALID JUMPDEST PUSH2 0xB7 PUSH1 0x4 DUP1 DUP1 CALLDATALOAD PUSH20 0xFFFFFFFFFFFFFFFFFFFFFFFFFFFFFFFFFFFFFFFF AND SWAP1 PUSH1 0x20 ADD SWAP1 SWAP2 SWAP1 POP POP PUSH2 0x207 JUMP JUMPDEST PUSH1 0x40 MLOAD DUP1 DUP3 DUP2 MSTORE PUSH1 0x20 ADD SWAP2 POP POP PUSH1 0x40 MLOAD DUP1 SWAP2 SUB SWAP1 RETURN JUMPDEST CALLVALUE ISZERO PUSH2 0xD5 JUMPI INVALID JUMPDEST PUSH2 0x10A PUSH1 0x4 DUP1 DUP1 CALLDATALOAD PUSH20 0xFFFFFFFFFFFFFFFFFFFFFFFFFFFFFFFFFFFFFFFF AND SWAP1 PUSH1 0x20 ADD SWAP1 SWAP2 SWAP1 DUP1 CALLDATALOAD SWAP1 PUSH1 0x20 ADD SWAP1 SWAP2 SWAP1 POP POP PUSH2 0x251 JUMP JUMPDEST STOP JUMPDEST CALLVALUE ISZERO PUSH2 0x114 JUMPI INVALID JUMPDEST PUSH2 0x140 PUSH1 0x4 DUP1 DUP1 CALLDATALOAD PUSH20 0xFFFFFFFFFFFFFFFFFFFFFFFFFFFFFFFFFFFFFFFF AND SWAP1 PUSH1 0x20 ADD SWAP1 SWAP2 SWAP1 POP POP PUSH2 0x343 JUMP JUMPDEST PUSH1 0x40 MLOAD DUP1 DUP3 DUP2 MSTORE PUSH1 0x20 ADD SWAP2 POP POP PUSH1 0x40 MLOAD DUP1 SWAP2 SUB SWAP1 RETURN JUMPDEST CALLVALUE ISZERO PUSH2 0x15E JUMPI INVALID JUMPDEST PUSH2 0x166 PUSH2 0x38D JUMP JUMPDEST PUSH1 0x40 MLOAD DUP1 DUP3 DUP2 MSTORE PUSH1 0x20 ADD SWAP2 POP POP PUSH1 0x40 MLOAD DUP1 SWAP2 SUB SWAP1 RETURN JUMPDEST CALLVALUE ISZERO PUSH2 0x184 JUMPI INVALID JUMPDEST PUSH2 0x18C PUSH2 0x393 JUMP JUMPDEST PUSH1 0x40 MLOAD DUP1 DUP3 DUP2 MSTORE PUSH1 0x20 ADD SWAP2 POP POP PUSH1 0x40 MLOAD DUP1 SWAP2 SUB SWAP1 RETURN JUMPDEST CALLVALUE ISZERO PUSH2 0x1AA JUMPI INVALID JUMPDEST PUSH2 0x1B2 PUSH2 0x399 JUMP JUMPDEST PUSH1 0x40 MLOAD DUP1 DUP3 DUP2 MSTORE PUSH1 0x20 ADD SWAP2 POP POP PUSH1 0x40 MLOAD DUP1 SWAP2 SUB SWAP1 RETURN JUMPDEST CALLVALUE ISZERO PUSH2 0x1D0 JUMPI INVALID JUMPDEST PUSH2 0x205 PUSH1 0x4 DUP1 DUP1 CALLDATALOAD PUSH20 0xFFFFFFFFFFFFFFFFFFFFFFFFFFFFFFFFFFFFFFFF AND SWAP1 PUSH1 0x20 ADD SWAP1 SWAP2 SWAP1 DUP1 CALLDATALOAD SWAP1 PUSH1 0x20 ADD SWAP1 SWAP2 SWAP1 POP POP PUSH2 0x39F JUMP JUMPDEST STOP JUMPDEST PUSH1 0x0 PUSH1 0x3 PUSH1 0x0 DUP4 PUSH20 0xFFFFFFFFFFFFFFFFFFFFFFFFFFFFFFFFFFFFFFFF AND PUSH20 0xFFFFFFFFFFFFFFFFFFFFFFFFFFFFFFFFFFFFFFFF AND DUP2 MSTORE PUSH1 0x20 ADD SWAP1 DUP2 MSTORE PUSH1 0x20 ADD PUSH1 0x0 SHA3 SLOAD SWAP1 POP JUMPDEST SWAP2 SWAP1 POP JUMP JUMPDEST DUP1 PUSH1 0x3 PUSH1 0x0 DUP5 PUSH20 0xFFFFFFFFFFFFFFFFFFFFFFFFFFFFFFFFFFFFFFFF AND PUSH20 0xFFFFFFFFFFFFFFFFFFFFFFFFFFFFFFFFFFFFFFFF AND DUP2 MSTORE PUSH1 0x20 ADD SWAP1 DUP2 MSTORE PUSH1 0x20 ADD PUSH1 0x0 SHA3 PUSH1 0x0 DUP3 DUP3 SLOAD SUB SWAP3 POP POP DUP2 SWAP1 SSTORE POP PUSH2 0x3E8 PUSH1 0x3 PUSH1 0x0 DUP5 PUSH20 0xFFFFFFFFFFFFFFFFFFFFFFFFFFFFFFFFFFFFFFFF AND PUSH20 0xFFFFFFFFFFFFFFFFFFFFFFFFFFFFFFFFFFFFFFFF AND DUP2 MSTORE PUSH1 0x20 ADD SWAP1 DUP2 MSTORE PUSH1 0x20 ADD PUSH1 0x0 SHA3 SLOAD DUP2 ISZERO ISZERO PUSH2 0x2EA JUMPI INVALID JUMPDEST DIV PUSH1 0x4 PUSH1 0x0 DUP5 PUSH20 0xFFFFFFFFFFFFFFFFFFFFFFFFFFFFFFFFFFFFFFFF AND PUSH20 0xFFFFFFFFFFFFFFFFFFFFFFFFFFFFFFFFFFFFFFFF AND DUP2 MSTORE PUSH1 0x20 ADD SWAP1 DUP2 MSTORE PUSH1 0x20 ADD PUSH1 0x0 SHA3 DUP2 SWAP1 SSTORE POP DUP1 PUSH1 0x2 PUSH1 0x0 DUP3 DUP3 SLOAD SUB SWAP3 POP POP DUP2 SWAP1 SSTORE POP JUMPDEST POP POP JUMP JUMPDEST PUSH1 0x0 PUSH1 0x4 PUSH1 0x0 DUP4 PUSH20 0xFFFFFFFFFFFFFFFFFFFFFFFFFFFFFFFFFFFFFFFF AND PUSH20 0xFFFFFFFFFFFFFFFFFFFFFFFFFFFFFFFFFFFFFFFF AND DUP2 MSTORE PUSH1 0x20 ADD SWAP1 DUP2 MSTORE PUSH1 0x20 ADD PUSH1 0x0 SHA3 SLOAD SWAP1 POP JUMPDEST SWAP2 SWAP1 POP JUMP JUMPDEST PUSH1 0x0 SLOAD DUP2 JUMP JUMPDEST PUSH1 0x2 SLOAD DUP2 JUMP JUMPDEST PUSH1 0x1 SLOAD DUP2 JUMP JUMPDEST PUSH1 0x0 DUP2 PUSH1 0x0 SLOAD PUSH1 0x2 SLOAD PUSH1 0x1 SLOAD DUP4 MUL ADD GT ISZERO ISZERO ISZERO PUSH2 0x3BC JUMPI PUSH1 0x0 PUSH1 0x0 REVERT JUMPDEST PUSH1 0x1 SLOAD DUP4 MUL SWAP2 POP DUP2 PUSH1 0x3 PUSH1 0x0 DUP7 PUSH20 0xFFFFFFFFFFFFFFFFFFFFFFFFFFFFFFFFFFFFFFFF AND PUSH20 0xFFFFFFFFFFFFFFFFFFFFFFFFFFFFFFFFFFFFFFFF AND DUP2 MSTORE PUSH1 0x20 ADD SWAP1 DUP2 MSTORE PUSH1 0x20 ADD PUSH1 0x0 SHA3 PUSH1 0x0 DUP3 DUP3 SLOAD ADD SWAP3 POP POP DUP2 SWAP1 SSTORE POP PUSH2 0x3E8 PUSH1 0x3 PUSH1 0x0 DUP7 PUSH20 0xFFFFFFFFFFFFFFFFFFFFFFFFFFFFFFFFFFFFFFFF AND PUSH20 0xFFFFFFFFFFFFFFFFFFFFFFFFFFFFFFFFFFFFFFFF AND DUP2 MSTORE PUSH1 0x20 ADD SWAP1 DUP2 MSTORE PUSH1 0x20 ADD PUSH1 0x0 SHA3 SLOAD DUP2 ISZERO ISZERO PUSH2 0x45C JUMPI INVALID JUMPDEST DIV PUSH1 0x4 PUSH1 0x0 DUP7 PUSH20 0xFFFFFFFFFFFFFFFFFFFFFFFFFFFFFFFFFFFFFFFF AND PUSH20 0xFFFFFFFFFFFFFFFFFFFFFFFFFFFFFFFFFFFFFFFF AND DUP2 MSTORE PUSH1 0x20 ADD SWAP1 DUP2 MSTORE PUSH1 0x20 ADD PUSH1 0x0 SHA3 DUP2 SWAP1 SSTORE POP DUP2 PUSH1 0x2 PUSH1 0x0 DUP3 DUP3 SLOAD ADD SWAP3 POP POP DUP2 SWAP1 SSTORE POP JUMPDEST JUMPDEST POP POP POP POP JUMP STOP LOG1 PUSH6 0x627A7A723058 SHA3 STOP SWAP16 0xb1 0x23 SIGNEXTEND 0xe4 0xbf PUSH11 0xC198316DD0E5DAF0421AFC 0x4b SELFDESTRUCT BYTE PUSH14 0x3285A7B3A83507FAAD0029000000 "
				},
				"gasEstimates": {
					"creation": {
						"codeDepositCost": "250400",
						"executionCost": "45308",
						"totalCost": "295708"
					},
					"external": {
						"buy_mincoins(address,uint256)": "62180",
						"equity_in_mincoins(address)": "527",
						"equity_in_usd(address)": "571",
						"max_mincoins()": "449",
						"sell_mincoins(address,uint256)": "61197",
						"total_mincoins_bought()": "471",
						"usd_to_mincoin_cr()": "493"
					}
				},
				"methodIdentifiers": {
					"buy_mincoins(address,uint256)": "d6ef7e0a",
					"equity_in_mincoins(address)": "0398e2c2",
					"equity_in_usd(address)": "10c51c1b",
					"max_mincoins()": "57772303",
					"sell_mincoins(address,uint256)": "0fa1e4d0",
					"total_mincoins_bought()": "79c66365",
					"usd_to_mincoin_cr()": "a9ed2122"
				}
			},
			"userdoc": {
				"methods": {}
			}
		}
	}
}