{
	"new_project.sol": {
		"mincoin_ico": {
			"abi": [
				{
					"constant": true,
					"inputs": [
						{
							"name": "investor",
							"type": "address"
						}
					],
					"name": "equity_in_mincoins",
					"outputs": [
						{
							"name": "",
							"type": "uint256"
						}
					],
					"payable": false,
					"type": "function",
					"stateMutability": "view"
				},
				{
					"constant": true,
					"inputs": [
						{
							"name": "investor",
							"type": "address"
						}
					],
					"name": "equity_in_usd",
					"outputs": [
						{
							"name": "",
							"type": "uint256"
						}
					],
					"payable": false,
					"type": "function",
					"stateMutability": "view"
				},
				{
					"constant": true,
					"inputs": [],
					"name": "max_mincoins",
					"outputs": [
						{
							"name": "",
							"type": "uint256"
						}
					],
					"payable": false,
					"type": "function",
					"stateMutability": "view"
				},
				{
					"constant": true,
					"inputs": [],
					"name": "total_mincoins_bought",
					"outputs": [
						{
							"name": "",
							"type": "uint256"
						}
					],
					"payable": false,
					"type": "function",
					"stateMutability": "view"
				},
				{
					"constant": true,
					"inputs": [],
					"name": "usd_to_mincoins",
					"outputs": [
						{
							"name": "",
							"type": "uint256"
						}
					],
					"payable": false,
					"type": "function",
					"stateMutability": "view"
				},
				{
					"constant": false,
					"inputs": [
						{
							"name": "investor",
							"type": "address"
						},
						{
							"name": "usd_invested",
							"type": "uint256"
						}
					],
					"name": "buy_mincoins",
					"outputs": [],
					"payable": false,
					"type": "function",
					"stateMutability": "nonpayable"
				}
			],
			"devdoc": {
				"methods": {}
			},
			"evm": {
				"assembly": "    /* \"new_project.sol\":20:1378  contract mincoin_ico {\r... */\n  mstore(0x40, 0x60)\n    /* \"new_project.sol\":139:146  1000000 */\n  0xf4240\n    /* \"new_project.sol\":112:146  uint public max_mincoins = 1000000 */\n  0x0\n  sstore\n    /* \"new_project.sol\":228:232  1000 */\n  0x3e8\n    /* \"new_project.sol\":198:232  uint public usd_to_mincoins = 1000 */\n  0x1\n  sstore\n    /* \"new_project.sol\":327:328  0 */\n  0x0\n    /* \"new_project.sol\":291:328  uint public total_mincoins_bought = 0 */\n  0x2\n  sstore\n    /* \"new_project.sol\":20:1378  contract mincoin_ico {\r... */\n  jumpi(tag_1, iszero(callvalue))\n  invalid\ntag_1:\ntag_2:\n  dataSize(sub_0)\n  dup1\n  dataOffset(sub_0)\n  0x0\n  codecopy\n  0x0\n  return\nstop\n\nsub_0: assembly {\n        /* \"new_project.sol\":20:1378  contract mincoin_ico {\r... */\n      mstore(0x40, 0x60)\n      jumpi(tag_1, iszero(calldatasize))\n      calldataload(0x0)\n      0x100000000000000000000000000000000000000000000000000000000\n      swap1\n      div\n      0xffffffff\n      and\n      dup1\n      0x398e2c2\n      eq\n      tag_2\n      jumpi\n      dup1\n      0x10c51c1b\n      eq\n      tag_3\n      jumpi\n      dup1\n      0x57772303\n      eq\n      tag_4\n      jumpi\n      dup1\n      0x79c66365\n      eq\n      tag_5\n      jumpi\n      dup1\n      0x7b93c2ca\n      eq\n      tag_6\n      jumpi\n      dup1\n      0xd6ef7e0a\n      eq\n      tag_7\n      jumpi\n    tag_1:\n      invalid\n        /* \"new_project.sol\":799:929  function equity_in_mincoins(address investor) external constant returns (uint) {\r... */\n    tag_2:\n      jumpi(tag_8, iszero(callvalue))\n      invalid\n    tag_8:\n      tag_9\n      0x4\n      dup1\n      dup1\n      calldataload\n      0xffffffffffffffffffffffffffffffffffffffff\n      and\n      swap1\n      0x20\n      add\n      swap1\n      swap2\n      swap1\n      pop\n      pop\n      jump(tag_10)\n    tag_9:\n      mload(0x40)\n      dup1\n      dup3\n      dup2\n      mstore\n      0x20\n      add\n      swap2\n      pop\n      pop\n      mload(0x40)\n      dup1\n      swap2\n      sub\n      swap1\n      return\n        /* \"new_project.sol\":982:1102  function equity_in_usd(address investor) external constant returns (uint) {\r... */\n    tag_3:\n      jumpi(tag_11, iszero(callvalue))\n      invalid\n    tag_11:\n      tag_12\n      0x4\n      dup1\n      dup1\n      calldataload\n      0xffffffffffffffffffffffffffffffffffffffff\n      and\n      swap1\n      0x20\n      add\n      swap1\n      swap2\n      swap1\n      pop\n      pop\n      jump(tag_13)\n    tag_12:\n      mload(0x40)\n      dup1\n      dup3\n      dup2\n      mstore\n      0x20\n      add\n      swap2\n      pop\n      pop\n      mload(0x40)\n      dup1\n      swap2\n      sub\n      swap1\n      return\n        /* \"new_project.sol\":112:146  uint public max_mincoins = 1000000 */\n    tag_4:\n      jumpi(tag_14, iszero(callvalue))\n      invalid\n    tag_14:\n      tag_15\n      jump(tag_16)\n    tag_15:\n      mload(0x40)\n      dup1\n      dup3\n      dup2\n      mstore\n      0x20\n      add\n      swap2\n      pop\n      pop\n      mload(0x40)\n      dup1\n      swap2\n      sub\n      swap1\n      return\n        /* \"new_project.sol\":291:328  uint public total_mincoins_bought = 0 */\n    tag_5:\n      jumpi(tag_17, iszero(callvalue))\n      invalid\n    tag_17:\n      tag_18\n      jump(tag_19)\n    tag_18:\n      mload(0x40)\n      dup1\n      dup3\n      dup2\n      mstore\n      0x20\n      add\n      swap2\n      pop\n      pop\n      mload(0x40)\n      dup1\n      swap2\n      sub\n      swap1\n      return\n        /* \"new_project.sol\":198:232  uint public usd_to_mincoins = 1000 */\n    tag_6:\n      jumpi(tag_20, iszero(callvalue))\n      invalid\n    tag_20:\n      tag_21\n      jump(tag_22)\n    tag_21:\n      mload(0x40)\n      dup1\n      dup3\n      dup2\n      mstore\n      0x20\n      add\n      swap2\n      pop\n      pop\n      mload(0x40)\n      dup1\n      swap2\n      sub\n      swap1\n      return\n        /* \"new_project.sol\":1136:1373  function buy_mincoins(address investor, uint usd_invested) external\r... */\n    tag_7:\n      jumpi(tag_23, iszero(callvalue))\n      invalid\n    tag_23:\n      tag_24\n      0x4\n      dup1\n      dup1\n      calldataload\n      0xffffffffffffffffffffffffffffffffffffffff\n      and\n      swap1\n      0x20\n      add\n      swap1\n      swap2\n      swap1\n      dup1\n      calldataload\n      swap1\n      0x20\n      add\n      swap1\n      swap2\n      swap1\n      pop\n      pop\n      jump(tag_25)\n    tag_24:\n      stop\n        /* \"new_project.sol\":799:929  function equity_in_mincoins(address investor) external constant returns (uint) {\r... */\n    tag_10:\n        /* \"new_project.sol\":872:876  uint */\n      0x0\n        /* \"new_project.sol\":896:911  equity_mincoins */\n      0x3\n        /* \"new_project.sol\":896:921  equity_mincoins[investor] */\n      0x0\n        /* \"new_project.sol\":912:920  investor */\n      dup4\n        /* \"new_project.sol\":896:921  equity_mincoins[investor] */\n      0xffffffffffffffffffffffffffffffffffffffff\n      and\n      0xffffffffffffffffffffffffffffffffffffffff\n      and\n      dup2\n      mstore\n      0x20\n      add\n      swap1\n      dup2\n      mstore\n      0x20\n      add\n      0x0\n      sha3\n      sload\n        /* \"new_project.sol\":889:921  return equity_mincoins[investor] */\n      swap1\n      pop\n        /* \"new_project.sol\":799:929  function equity_in_mincoins(address investor) external constant returns (uint) {\r... */\n    tag_26:\n      swap2\n      swap1\n      pop\n      jump\t// out\n        /* \"new_project.sol\":982:1102  function equity_in_usd(address investor) external constant returns (uint) {\r... */\n    tag_13:\n        /* \"new_project.sol\":1050:1054  uint */\n      0x0\n        /* \"new_project.sol\":1074:1084  equity_usd */\n      0x4\n        /* \"new_project.sol\":1074:1094  equity_usd[investor] */\n      0x0\n        /* \"new_project.sol\":1085:1093  investor */\n      dup4\n        /* \"new_project.sol\":1074:1094  equity_usd[investor] */\n      0xffffffffffffffffffffffffffffffffffffffff\n      and\n      0xffffffffffffffffffffffffffffffffffffffff\n      and\n      dup2\n      mstore\n      0x20\n      add\n      swap1\n      dup2\n      mstore\n      0x20\n      add\n      0x0\n      sha3\n      sload\n        /* \"new_project.sol\":1067:1094  return equity_usd[investor] */\n      swap1\n      pop\n        /* \"new_project.sol\":982:1102  function equity_in_usd(address investor) external constant returns (uint) {\r... */\n    tag_27:\n      swap2\n      swap1\n      pop\n      jump\t// out\n        /* \"new_project.sol\":112:146  uint public max_mincoins = 1000000 */\n    tag_16:\n      sload(0x0)\n      dup2\n      jump\t// out\n        /* \"new_project.sol\":291:328  uint public total_mincoins_bought = 0 */\n    tag_19:\n      sload(0x2)\n      dup2\n      jump\t// out\n        /* \"new_project.sol\":198:232  uint public usd_to_mincoins = 1000 */\n    tag_22:\n      sload(0x1)\n      dup2\n      jump\t// out\n        /* \"new_project.sol\":1136:1373  function buy_mincoins(address investor, uint usd_invested) external\r... */\n    tag_25:\n        /* \"new_project.sol\":1251:1271  uint mincoins_bought */\n      0x0\n        /* \"new_project.sol\":1226:1238  usd_invested */\n      dup2\n        /* \"new_project.sol\":705:717  max_mincoins */\n      sload(0x0)\n        /* \"new_project.sol\":680:701  total_mincoins_bought */\n      sload(0x2)\n        /* \"new_project.sol\":662:677  usd_to_mincoins */\n      sload(0x1)\n        /* \"new_project.sol\":647:659  usd_invested */\n      dup4\n        /* \"new_project.sol\":647:677  usd_invested * usd_to_mincoins */\n      mul\n        /* \"new_project.sol\":647:701  usd_invested * usd_to_mincoins + total_mincoins_bought */\n      add\n        /* \"new_project.sol\":647:717  usd_invested * usd_to_mincoins + total_mincoins_bought <= max_mincoins */\n      gt\n      iszero\n        /* \"new_project.sol\":638:718  require (usd_invested * usd_to_mincoins + total_mincoins_bought <= max_mincoins) */\n      iszero\n      iszero\n      tag_29\n      jumpi\n      revert(0x0, 0x0)\n    tag_29:\n        /* \"new_project.sol\":1289:1304  usd_to_mincoins */\n      sload(0x1)\n        /* \"new_project.sol\":1274:1286  usd_invested */\n      dup4\n        /* \"new_project.sol\":1274:1304  usd_invested * usd_to_mincoins */\n      mul\n        /* \"new_project.sol\":1251:1304  uint mincoins_bought = usd_invested * usd_to_mincoins */\n      swap2\n      pop\n        /* \"new_project.sol\":1344:1359  mincoins_bought */\n      dup2\n        /* \"new_project.sol\":1315:1330  equity_mincoins */\n      0x3\n        /* \"new_project.sol\":1315:1340  equity_mincoins[investor] */\n      0x0\n        /* \"new_project.sol\":1331:1339  investor */\n      dup7\n        /* \"new_project.sol\":1315:1340  equity_mincoins[investor] */\n      0xffffffffffffffffffffffffffffffffffffffff\n      and\n      0xffffffffffffffffffffffffffffffffffffffff\n      and\n      dup2\n      mstore\n      0x20\n      add\n      swap1\n      dup2\n      mstore\n      0x20\n      add\n      0x0\n      sha3\n      0x0\n        /* \"new_project.sol\":1315:1359  equity_mincoins[investor] += mincoins_bought */\n      dup3\n      dup3\n      sload\n      add\n      swap3\n      pop\n      pop\n      dup2\n      swap1\n      sstore\n      pop\n        /* \"new_project.sol\":729:730  _ */\n    tag_30:\n        /* \"new_project.sol\":1136:1373  function buy_mincoins(address investor, uint usd_invested) external\r... */\n    tag_28:\n      pop\n      pop\n      pop\n      pop\n      jump\t// out\n}\n",
				"bytecode": {
					"linkReferences": {},
					"object": "6060604052620f42406000556103e86001556000600255341561001e57fe5b5b6103088061002e6000396000f30060606040523615610076576000357c0100000000000000000000000000000000000000000000000000000000900463ffffffff1680630398e2c21461007857806310c51c1b146100c2578063577723031461010c57806379c66365146101325780637b93c2ca14610158578063d6ef7e0a1461017e575bfe5b341561008057fe5b6100ac600480803573ffffffffffffffffffffffffffffffffffffffff169060200190919050506101bd565b6040518082815260200191505060405180910390f35b34156100ca57fe5b6100f6600480803573ffffffffffffffffffffffffffffffffffffffff16906020019091905050610207565b6040518082815260200191505060405180910390f35b341561011457fe5b61011c610251565b6040518082815260200191505060405180910390f35b341561013a57fe5b610142610257565b6040518082815260200191505060405180910390f35b341561016057fe5b61016861025d565b6040518082815260200191505060405180910390f35b341561018657fe5b6101bb600480803573ffffffffffffffffffffffffffffffffffffffff16906020019091908035906020019091905050610263565b005b6000600360008373ffffffffffffffffffffffffffffffffffffffff1673ffffffffffffffffffffffffffffffffffffffff1681526020019081526020016000205490505b919050565b6000600460008373ffffffffffffffffffffffffffffffffffffffff1673ffffffffffffffffffffffffffffffffffffffff1681526020019081526020016000205490505b919050565b60005481565b60025481565b60015481565b600081600054600254600154830201111515156102805760006000fd5b6001548302915081600360008673ffffffffffffffffffffffffffffffffffffffff1673ffffffffffffffffffffffffffffffffffffffff168152602001908152602001600020600082825401925050819055505b5b505050505600a165627a7a723058202b6e8619acd822256b09b65c2f55904e360c95747f9512f3d6fdb584923539da0029",
					"opcodes": "PUSH1 0x60 PUSH1 0x40 MSTORE PUSH3 0xF4240 PUSH1 0x0 SSTORE PUSH2 0x3E8 PUSH1 0x1 SSTORE PUSH1 0x0 PUSH1 0x2 SSTORE CALLVALUE ISZERO PUSH2 0x1E JUMPI INVALID JUMPDEST JUMPDEST PUSH2 0x308 DUP1 PUSH2 0x2E PUSH1 0x0 CODECOPY PUSH1 0x0 RETURN STOP PUSH1 0x60 PUSH1 0x40 MSTORE CALLDATASIZE ISZERO PUSH2 0x76 JUMPI PUSH1 0x0 CALLDATALOAD PUSH29 0x100000000000000000000000000000000000000000000000000000000 SWAP1 DIV PUSH4 0xFFFFFFFF AND DUP1 PUSH4 0x398E2C2 EQ PUSH2 0x78 JUMPI DUP1 PUSH4 0x10C51C1B EQ PUSH2 0xC2 JUMPI DUP1 PUSH4 0x57772303 EQ PUSH2 0x10C JUMPI DUP1 PUSH4 0x79C66365 EQ PUSH2 0x132 JUMPI DUP1 PUSH4 0x7B93C2CA EQ PUSH2 0x158 JUMPI DUP1 PUSH4 0xD6EF7E0A EQ PUSH2 0x17E JUMPI JUMPDEST INVALID JUMPDEST CALLVALUE ISZERO PUSH2 0x80 JUMPI INVALID JUMPDEST PUSH2 0xAC PUSH1 0x4 DUP1 DUP1 CALLDATALOAD PUSH20 0xFFFFFFFFFFFFFFFFFFFFFFFFFFFFFFFFFFFFFFFF AND SWAP1 PUSH1 0x20 ADD SWAP1 SWAP2 SWAP1 POP POP PUSH2 0x1BD JUMP JUMPDEST PUSH1 0x40 MLOAD DUP1 DUP3 DUP2 MSTORE PUSH1 0x20 ADD SWAP2 POP POP PUSH1 0x40 MLOAD DUP1 SWAP2 SUB SWAP1 RETURN JUMPDEST CALLVALUE ISZERO PUSH2 0xCA JUMPI INVALID JUMPDEST PUSH2 0xF6 PUSH1 0x4 DUP1 DUP1 CALLDATALOAD PUSH20 0xFFFFFFFFFFFFFFFFFFFFFFFFFFFFFFFFFFFFFFFF AND SWAP1 PUSH1 0x20 ADD SWAP1 SWAP2 SWAP1 POP POP PUSH2 0x207 JUMP JUMPDEST PUSH1 0x40 MLOAD DUP1 DUP3 DUP2 MSTORE PUSH1 0x20 ADD SWAP2 POP POP PUSH1 0x40 MLOAD DUP1 SWAP2 SUB SWAP1 RETURN JUMPDEST CALLVALUE ISZERO PUSH2 0x114 JUMPI INVALID JUMPDEST PUSH2 0x11C PUSH2 0x251 JUMP JUMPDEST PUSH1 0x40 MLOAD DUP1 DUP3 DUP2 MSTORE PUSH1 0x20 ADD SWAP2 POP POP PUSH1 0x40 MLOAD DUP1 SWAP2 SUB SWAP1 RETURN JUMPDEST CALLVALUE ISZERO PUSH2 0x13A JUMPI INVALID JUMPDEST PUSH2 0x142 PUSH2 0x257 JUMP JUMPDEST PUSH1 0x40 MLOAD DUP1 DUP3 DUP2 MSTORE PUSH1 0x20 ADD SWAP2 POP POP PUSH1 0x40 MLOAD DUP1 SWAP2 SUB SWAP1 RETURN JUMPDEST CALLVALUE ISZERO PUSH2 0x160 JUMPI INVALID JUMPDEST PUSH2 0x168 PUSH2 0x25D JUMP JUMPDEST PUSH1 0x40 MLOAD DUP1 DUP3 DUP2 MSTORE PUSH1 0x20 ADD SWAP2 POP POP PUSH1 0x40 MLOAD DUP1 SWAP2 SUB SWAP1 RETURN JUMPDEST CALLVALUE ISZERO PUSH2 0x186 JUMPI INVALID JUMPDEST PUSH2 0x1BB PUSH1 0x4 DUP1 DUP1 CALLDATALOAD PUSH20 0xFFFFFFFFFFFFFFFFFFFFFFFFFFFFFFFFFFFFFFFF AND SWAP1 PUSH1 0x20 ADD SWAP1 SWAP2 SWAP1 DUP1 CALLDATALOAD SWAP1 PUSH1 0x20 ADD SWAP1 SWAP2 SWAP1 POP POP PUSH2 0x263 JUMP JUMPDEST STOP JUMPDEST PUSH1 0x0 PUSH1 0x3 PUSH1 0x0 DUP4 PUSH20 0xFFFFFFFFFFFFFFFFFFFFFFFFFFFFFFFFFFFFFFFF AND PUSH20 0xFFFFFFFFFFFFFFFFFFFFFFFFFFFFFFFFFFFFFFFF AND DUP2 MSTORE PUSH1 0x20 ADD SWAP1 DUP2 MSTORE PUSH1 0x20 ADD PUSH1 0x0 SHA3 SLOAD SWAP1 POP JUMPDEST SWAP2 SWAP1 POP JUMP JUMPDEST PUSH1 0x0 PUSH1 0x4 PUSH1 0x0 DUP4 PUSH20 0xFFFFFFFFFFFFFFFFFFFFFFFFFFFFFFFFFFFFFFFF AND PUSH20 0xFFFFFFFFFFFFFFFFFFFFFFFFFFFFFFFFFFFFFFFF AND DUP2 MSTORE PUSH1 0x20 ADD SWAP1 DUP2 MSTORE PUSH1 0x20 ADD PUSH1 0x0 SHA3 SLOAD SWAP1 POP JUMPDEST SWAP2 SWAP1 POP JUMP JUMPDEST PUSH1 0x0 SLOAD DUP2 JUMP JUMPDEST PUSH1 0x2 SLOAD DUP2 JUMP JUMPDEST PUSH1 0x1 SLOAD DUP2 JUMP JUMPDEST PUSH1 0x0 DUP2 PUSH1 0x0 SLOAD PUSH1 0x2 SLOAD PUSH1 0x1 SLOAD DUP4 MUL ADD GT ISZERO ISZERO ISZERO PUSH2 0x280 JUMPI PUSH1 0x0 PUSH1 0x0 REVERT JUMPDEST PUSH1 0x1 SLOAD DUP4 MUL SWAP2 POP DUP2 PUSH1 0x3 PUSH1 0x0 DUP7 PUSH20 0xFFFFFFFFFFFFFFFFFFFFFFFFFFFFFFFFFFFFFFFF AND PUSH20 0xFFFFFFFFFFFFFFFFFFFFFFFFFFFFFFFFFFFFFFFF AND DUP2 MSTORE PUSH1 0x20 ADD SWAP1 DUP2 MSTORE PUSH1 0x20 ADD PUSH1 0x0 SHA3 PUSH1 0x0 DUP3 DUP3 SLOAD ADD SWAP3 POP POP DUP2 SWAP1 SSTORE POP JUMPDEST JUMPDEST POP POP POP POP JUMP STOP LOG1 PUSH6 0x627A7A723058 SHA3 0x2b PUSH15 0x8619ACD822256B09B65C2F55904E36 0xc SWAP6 PUSH21 0x7F9512F3D6FDB584923539DA002900000000000000 "
				},
				"gasEstimates": {
					"creation": {
						"codeDepositCost": "155200",
						"executionCost": "45216",
						"totalCost": "200416"
					},
					"external": {
						"buy_mincoins(address,uint256)": "21500",
						"equity_in_mincoins(address)": "527",
						"equity_in_usd(address)": "549",
						"max_mincoins()": "427",
						"total_mincoins_bought()": "449",
						"usd_to_mincoins()": "471"
					}
				},
				"methodIdentifiers": {
					"buy_mincoins(address,uint256)": "d6ef7e0a",
					"equity_in_mincoins(address)": "0398e2c2",
					"equity_in_usd(address)": "10c51c1b",
					"max_mincoins()": "57772303",
					"total_mincoins_bought()": "79c66365",
					"usd_to_mincoins()": "7b93c2ca"
				}
			},
			"userdoc": {
				"methods": {}
			}
		}
	}
}